{
  "contractName": "EnergyTrading",
  "abi": [
    {
      "anonymous": false,
      "inputs": [
        {
          "indexed": true,
          "internalType": "address",
          "name": "seller",
          "type": "address"
        },
        {
          "indexed": true,
          "internalType": "address",
          "name": "buyer",
          "type": "address"
        },
        {
          "indexed": false,
          "internalType": "uint256",
          "name": "energyAmount",
          "type": "uint256"
        },
        {
          "indexed": false,
          "internalType": "uint256",
          "name": "price",
          "type": "uint256"
        }
      ],
      "name": "TradeCreated",
      "type": "event"
    },
    {
      "inputs": [
        {
          "internalType": "address",
          "name": "",
          "type": "address"
        }
      ],
      "name": "renewableEnergyIncentives",
      "outputs": [
        {
          "internalType": "uint256",
          "name": "",
          "type": "uint256"
        }
      ],
      "stateMutability": "view",
      "type": "function",
      "constant": true
    },
    {
      "inputs": [
        {
          "internalType": "uint256",
          "name": "",
          "type": "uint256"
        }
      ],
      "name": "trades",
      "outputs": [
        {
          "internalType": "address",
          "name": "seller",
          "type": "address"
        },
        {
          "internalType": "address",
          "name": "buyer",
          "type": "address"
        },
        {
          "internalType": "uint256",
          "name": "energyAmount",
          "type": "uint256"
        },
        {
          "internalType": "uint256",
          "name": "price",
          "type": "uint256"
        }
      ],
      "stateMutability": "view",
      "type": "function",
      "constant": true
    },
    {
      "inputs": [
        {
          "internalType": "address",
          "name": "_buyer",
          "type": "address"
        },
        {
          "internalType": "uint256",
          "name": "_energyAmount",
          "type": "uint256"
        },
        {
          "internalType": "uint256",
          "name": "_price",
          "type": "uint256"
        }
      ],
      "name": "createTrade",
      "outputs": [],
      "stateMutability": "nonpayable",
      "type": "function"
    },
    {
      "inputs": [
        {
          "internalType": "uint256",
          "name": "index",
          "type": "uint256"
        }
      ],
      "name": "getTrade",
      "outputs": [
        {
          "internalType": "address",
          "name": "seller",
          "type": "address"
        },
        {
          "internalType": "address",
          "name": "buyer",
          "type": "address"
        },
        {
          "internalType": "uint256",
          "name": "energyAmount",
          "type": "uint256"
        },
        {
          "internalType": "uint256",
          "name": "price",
          "type": "uint256"
        }
      ],
      "stateMutability": "view",
      "type": "function",
      "constant": true
    },
    {
      "inputs": [
        {
          "internalType": "address",
          "name": "_seller",
          "type": "address"
        },
        {
          "internalType": "uint256",
          "name": "_energyAmount",
          "type": "uint256"
        }
      ],
      "name": "routePower",
      "outputs": [
        {
          "internalType": "uint256",
          "name": "",
          "type": "uint256"
        }
      ],
      "stateMutability": "nonpayable",
      "type": "function"
    },
    {
      "inputs": [
        {
          "internalType": "address[]",
          "name": "_addresses",
          "type": "address[]"
        },
        {
          "internalType": "uint256[]",
          "name": "_incentives",
          "type": "uint256[]"
        }
      ],
      "name": "updateRenewableEnergyIncentives",
      "outputs": [],
      "stateMutability": "nonpayable",
      "type": "function"
    }
  ],
  "bytecode": "0x608060405234801561001057600080fd5b50610d0f806100206000396000f3fe608060405234801561001057600080fd5b50600436106100625760003560e01c80631e6c598e146100675780632db25e051461009a57806353fa6b41146100cd5780638c6fc9b3146100fd578063ad06bfe914610119578063b13636e914610135575b600080fd5b610081600480360381019061007c919061066e565b610165565b60405161009194939291906106eb565b60405180910390f35b6100b460048036038101906100af919061066e565b6101e5565b6040516100c494939291906106eb565b60405180910390f35b6100e760048036038101906100e2919061075c565b6102bb565b6040516100f49190610789565b60405180910390f35b610117600480360381019061011291906109c0565b6102d3565b005b610133600480360381019061012e9190610a38565b6103b3565b005b61014f600480360381019061014a9190610a8b565b61053b565b60405161015c9190610789565b60405180910390f35b6000818154811061017557600080fd5b90600052602060002090600402016000915090508060000160009054906101000a900473ffffffffffffffffffffffffffffffffffffffff16908060010160009054906101000a900473ffffffffffffffffffffffffffffffffffffffff16908060020154908060030154905084565b6000806000806000805490508510610232576040517f08c379a000000000000000000000000000000000000000000000000000000000815260040161022990610b28565b60405180910390fd5b600080868154811061024757610246610b48565b5b906000526020600020906004020190508060000160009054906101000a900473ffffffffffffffffffffffffffffffffffffffff1694508060010160009054906101000a900473ffffffffffffffffffffffffffffffffffffffff1693508060020154925080600301549150509193509193565b60016020528060005260406000206000915090505481565b8051825114610317576040517f08c379a000000000000000000000000000000000000000000000000000000000815260040161030e90610bc3565b60405180910390fd5b60005b82518110156103ae5781818151811061033657610335610b48565b5b60200260200101516001600085848151811061035557610354610b48565b5b602002602001015173ffffffffffffffffffffffffffffffffffffffff1673ffffffffffffffffffffffffffffffffffffffff1681526020019081526020016000208190555080806103a690610c12565b91505061031a565b505050565b600060405180608001604052803373ffffffffffffffffffffffffffffffffffffffff1681526020018573ffffffffffffffffffffffffffffffffffffffff16815260200184815260200183815250908060018154018082558091505060019003906000526020600020906004020160009091909190915060008201518160000160006101000a81548173ffffffffffffffffffffffffffffffffffffffff021916908373ffffffffffffffffffffffffffffffffffffffff16021790555060208201518160010160006101000a81548173ffffffffffffffffffffffffffffffffffffffff021916908373ffffffffffffffffffffffffffffffffffffffff160217905550604082015181600201556060820151816003015550508273ffffffffffffffffffffffffffffffffffffffff163373ffffffffffffffffffffffffffffffffffffffff167f73e7cc0c91278f3120b88a0c2a34f2c038fd293a48f8c245c435a48ef2bbb2f9848460405161052e929190610c5a565b60405180910390a3505050565b6000808290506000600160008673ffffffffffffffffffffffffffffffffffffffff1673ffffffffffffffffffffffffffffffffffffffff16815260200190815260200160002054111561061a57600160008573ffffffffffffffffffffffffffffffffffffffff1673ffffffffffffffffffffffffffffffffffffffff16815260200190815260200160002054816105d49190610c83565b9050600160008573ffffffffffffffffffffffffffffffffffffffff1673ffffffffffffffffffffffffffffffffffffffff168152602001908152602001600020600090555b8091505092915050565b6000604051905090565b600080fd5b600080fd5b6000819050919050565b61064b81610638565b811461065657600080fd5b50565b60008135905061066881610642565b92915050565b6000602082840312156106845761068361062e565b5b600061069284828501610659565b91505092915050565b600073ffffffffffffffffffffffffffffffffffffffff82169050919050565b60006106c68261069b565b9050919050565b6106d6816106bb565b82525050565b6106e581610638565b82525050565b600060808201905061070060008301876106cd565b61070d60208301866106cd565b61071a60408301856106dc565b61072760608301846106dc565b95945050505050565b610739816106bb565b811461074457600080fd5b50565b60008135905061075681610730565b92915050565b6000602082840312156107725761077161062e565b5b600061078084828501610747565b91505092915050565b600060208201905061079e60008301846106dc565b92915050565b600080fd5b6000601f19601f8301169050919050565b7f4e487b7100000000000000000000000000000000000000000000000000000000600052604160045260246000fd5b6107f2826107a9565b810181811067ffffffffffffffff82111715610811576108106107ba565b5b80604052505050565b6000610824610624565b905061083082826107e9565b919050565b600067ffffffffffffffff8211156108505761084f6107ba565b5b602082029050602081019050919050565b600080fd5b600061087961087484610835565b61081a565b9050808382526020820190506020840283018581111561089c5761089b610861565b5b835b818110156108c557806108b18882610747565b84526020840193505060208101905061089e565b5050509392505050565b600082601f8301126108e4576108e36107a4565b5b81356108f4848260208601610866565b91505092915050565b600067ffffffffffffffff821115610918576109176107ba565b5b602082029050602081019050919050565b600061093c610937846108fd565b61081a565b9050808382526020820190506020840283018581111561095f5761095e610861565b5b835b8181101561098857806109748882610659565b845260208401935050602081019050610961565b5050509392505050565b600082601f8301126109a7576109a66107a4565b5b81356109b7848260208601610929565b91505092915050565b600080604083850312156109d7576109d661062e565b5b600083013567ffffffffffffffff8111156109f5576109f4610633565b5b610a01858286016108cf565b925050602083013567ffffffffffffffff811115610a2257610a21610633565b5b610a2e85828601610992565b9150509250929050565b600080600060608486031215610a5157610a5061062e565b5b6000610a5f86828701610747565b9350506020610a7086828701610659565b9250506040610a8186828701610659565b9150509250925092565b60008060408385031215610aa257610aa161062e565b5b6000610ab085828601610747565b9250506020610ac185828601610659565b9150509250929050565b600082825260208201905092915050565b7f496e76616c696420747261646520696e64657800000000000000000000000000600082015250565b6000610b12601383610acb565b9150610b1d82610adc565b602082019050919050565b60006020820190508181036000830152610b4181610b05565b9050919050565b7f4e487b7100000000000000000000000000000000000000000000000000000000600052603260045260246000fd5b7f417272617973206c656e677468206d69736d6174636800000000000000000000600082015250565b6000610bad601683610acb565b9150610bb882610b77565b602082019050919050565b60006020820190508181036000830152610bdc81610ba0565b9050919050565b7f4e487b7100000000000000000000000000000000000000000000000000000000600052601160045260246000fd5b6000610c1d82610638565b91507fffffffffffffffffffffffffffffffffffffffffffffffffffffffffffffffff8203610c4f57610c4e610be3565b5b600182019050919050565b6000604082019050610c6f60008301856106dc565b610c7c60208301846106dc565b9392505050565b6000610c8e82610638565b9150610c9983610638565b9250827fffffffffffffffffffffffffffffffffffffffffffffffffffffffffffffffff03821115610cce57610ccd610be3565b5b82820190509291505056fea26469706673582212206bb581ac9b4ec2a098721b611322b002661a5024d81a34fd202ff3033836c73264736f6c634300080d0033",
  "immutableReferences": {},
  "source": "// SPDX-License-Identifier: MIT\r\npragma solidity ^0.8.0;\r\n\r\ncontract EnergyTrading {\r\n    // Define the structure of a trade\r\n    struct Trade {\r\n        address seller;\r\n        address buyer;\r\n        uint256 energyAmount;\r\n        uint256 price;\r\n    }\r\n\r\n    // Array to store trades\r\n    Trade[] public trades;\r\n\r\n    // Mapping to track renewable energy incentives for addresses\r\n    mapping(address => uint256) public renewableEnergyIncentives;\r\n\r\n    // Event for trade creation\r\n    event TradeCreated(address indexed seller, address indexed buyer, uint256 energyAmount, uint256 price);\r\n\r\n    // Function to facilitate P2P trading\r\n    function createTrade(address _buyer, uint256 _energyAmount, uint256 _price) public {\r\n        trades.push(Trade(msg.sender, _buyer, _energyAmount, _price));\r\n        emit TradeCreated(msg.sender, _buyer, _energyAmount, _price);\r\n    }\r\n\r\n    // Function to retrieve trade details based on index\r\n    function getTrade(uint256 index) public view returns (address seller, address buyer, uint256 energyAmount, uint256 price) {\r\n        require(index < trades.length, \"Invalid trade index\");\r\n\r\n        Trade storage trade = trades[index];\r\n        seller = trade.seller;\r\n        buyer = trade.buyer;\r\n        energyAmount = trade.energyAmount;\r\n        price = trade.price;\r\n    }\r\n\r\n    // Function for power routing (considering renewable energy incentives)\r\n    function routePower(address _seller, uint256 _energyAmount) public returns (uint256) {\r\n        uint256 finalEnergyAmount = _energyAmount;\r\n\r\n        // Check if the seller has renewable energy incentives\r\n        if (renewableEnergyIncentives[_seller] > 0) {\r\n            // Apply renewable energy incentive\r\n            finalEnergyAmount += renewableEnergyIncentives[_seller];\r\n            // Reset the incentive after using it\r\n            delete renewableEnergyIncentives[_seller];\r\n        }\r\n\r\n        return finalEnergyAmount;\r\n    }\r\n\r\n    // Function to update renewable energy incentives\r\n    function updateRenewableEnergyIncentives(address[] memory _addresses, uint256[] memory _incentives) public {\r\n        require(_addresses.length == _incentives.length, \"Arrays length mismatch\");\r\n\r\n        for (uint256 i = 0; i < _addresses.length; i++) {\r\n            renewableEnergyIncentives[_addresses[i]] = _incentives[i];\r\n        }\r\n    }\r\n}",
  "sourcePath": "C:\\Users\\KIIT\\EnergyTradingDemo\\contracts\\EnergyTrading.sol",
  "compiler": {
    "name": "solc",
    "version": "0.8.13+commit.abaa5c0e.Emscripten.clang"
  },
  "schemaVersion": "3.4.16",
  "updatedAt": "2024-04-11T19:46:24.934Z",
  "networkType": "ethereum",
  "devdoc": {
    "kind": "dev",
    "methods": {},
    "version": 1
  },
  "userdoc": {
    "kind": "user",
    "methods": {},
    "version": 1
  }
}